:020000040800F2
:1000000000000320253F0008253B0008273B00088F
:10001000293B00082B3B00082D3B00080000000096
:10002000000000000000000000000000A126000801
:100030002F3B00080000000031270008952700082A
:10004000753F0008753F0008753F0008753F0008C0
:10005000753F0008753F0008753F0008753F0008B0
:10006000753F0008753F0008313B0008753F0008E8
:10007000753F0008753F0008753F0008753F000890
:10008000753F0008753F0008753F0008753F000880
:10009000753F0008753F0008753F0008373B0008B2
:1000A000753F0008753F0008753F0008753F000860
:1000B000753F0008753F0008753F0008753F000850
:1000C000753F0008753F0008753F0008753F000840
:1000D000753F0008753F0008753F0008753F000830
:1000E0004F3B0008753F0008753F0008753F00084A
:1000F000593B0008753F0008753F0008753F000830
:10010000753F0008753F0008753F0008753F0008FF
:10011000753F0008753F0008753F0008753F0008EF
:10012000753F0008753F0008753F0008753F0008DF
:10013000753F0008753F0008753F0008753F0008CF
:10014000753F0008753F0008753F0008753F0008BF
:10015000753F0008753F0008753F0008753F0008AF
:10016000753F0008753F0008753F0008753F00089F
:10017000753F0008753F0008753F0008000000004B
:10018000753F0008753F0008753F0008753F00087F
:10019000753F0008753F0008753F0008753F00086F
:0C01A000753F0008753F0008753F00081F
:1001B00010B5054C237833B9044B13B10448AFF3A1
:1001C00000800123237010BD1000002000000000FB
:1001D000D03F000808B5034B1BB103490348AFF3F8
:1001E000008008BD0000000014000020D03F00087F
:1001F000034613F8012B002AFBD1181A0138704767
:1002000053B94AB9002908BF00281CBF4FF0FF317D
:100210004FF0FF3000F07AB9ADF1080C6DE904CE73
:1002200000F006F8DDF804E0DDE9022304B07047D1
:100230002DE9F0478C460D460446089E002B51D10F
:100240008A4217466DD9B2FA82FEBEF1000F0BD07A
:10025000CEF1200C01FA0EF520FA0CFC02FA0EF792
:100260004CEA050C00FA0EF44FEA174A250CBCFBC9
:10027000FAF81FFA87F90AFB18CC45EA0C4508FB87
:1002800009F3AB420AD9ED1908F1FF3280F023815E
:10029000AB4240F22081A8F102083D44ED1AA4B21D
:1002A000B5FBFAF00AFB105544EA054400FB09F9D6
:1002B000A14509D9E41900F1FF3380F00A81A14575
:1002C00040F2078102383C44A4EB090440EA0840AC
:1002D0000021002E61D024FA0EF4002334607360F4
:1002E000BDE8F0878B4207D9002E54D0002186E864
:1002F00021000846BDE8F087B3FA83F1002940F0F9
:100300008E80AB4202D3824200F2FA80841A65EBFF
:1003100003050120AC46002E3FD086E81010BDE852
:10032000F08712B90127B7FBF2F7B7FA87FEBEF1E3
:10033000000F34D1EB1B3A0C1FFA87FC0121B3FBF1
:10034000F2F8250C02FB183345EA03450CFB08F3D1
:10035000AB4207D9ED1908F1FF3002D2AB4200F2EF
:10036000D1808046ED1AA3B2B5FBF2F002FB105526
:1003700043EA05440CFB00FCA44507D9E41900F14D
:10038000FF3302D2A44500F2B8801846A4EB0C0457
:1003900040EA08409DE731463046BDE8F087CEF19F
:1003A000200405FA0EF307FA0EF720FA04F83A0CC7
:1003B00025FA04F448EA0308B4FBF2F14FEA1845C1
:1003C00002FB11441FFA87FC45EA044501FB0CF3CC
:1003D000AB4200FA0EF409D9ED1901F1FF3080F0BB
:1003E0008A80AB4240F2878002393D44EB1A1FFA03
:1003F00088F5B3FBF2F002FB103345EA034500FB3E
:100400000CF3AB4207D9ED1900F1FF386FD2AB42C4
:100410006DD902383D44EB1A40EA01418FE7C1F142
:10042000200722FA07F88B4005FA01F448EA030393
:1004300020FA07FE4FEA134CFD404EEA040EB5FBCE
:10044000FCF94FEA1E440CFB19551FFA83F844EAE5
:10045000054509FB08F4AC4202FA01F200FA01FA80
:1004600008D9ED1809F1FF3043D2AC4241D9A9F1C6
:1004700002091D442D1B1FFA8EFEB5FBFCF00CFB80
:1004800010554EEA054400FB08F8A04507D9E418CA
:1004900000F1FF3529D2A04527D902381C4440EA93
:1004A0000940A4EB0804A0FB02894C45C6464D4612
:1004B00015D312D056B1BAEB0E0364EB050404FA5F
:1004C00007F7CB401F43CC40376074600021BDE884
:1004D000F0871846F8E69046E0E6C245EAD2B8EB67
:1004E000020E69EB03050138E4E72846D7E74046EA
:1004F00091E78146BEE7014678E702383C4445E78C
:10050000084608E7A8F102083D442BE7704700BF02
:1005100008B50B4B1A6842F400721A601A6842F46C
:1005200080621A601A6842F480721A60032000F038
:1005300077F9002003F0B8FA03F094FA002008BD20
:10054000003C0240034A044B11681B780B441360C3
:10055000704700BFC83F002000000020014B186812
:10056000704700BFC83F002038B50446FFF7F6FFCC
:10057000631C1CBF054B1B78054618BFE418FFF72A
:10058000EDFF401B8442FAD838BD00BF00000020B8
:1005900038B50446002800F09B80056C25B902F0B0
:1005A00037FE656484F83C50236CDB0600F18E80D6
:1005B000236C23F4885323F0020343F002032364E3
:1005C000444B5A6822F440325A605A6861680A43C0
:1005D0005A60236821695A6822F480725A605A6806
:1005E00042EA01225A605A68A16822F040725A60B9
:1005F0005A680A435A609A68E16822F400629A6075
:100600009A680A439A603449A26A8A4252D0996829
:1006100021F07061996099680A439A609A68E16A6A
:1006200022F040529A609A680A439A609A68217E42
:1006300022F002029A609A6842EA41029A6094F8B3
:100640002020002A3ED05A68616A42F400625A6053
:100650005A6822F460425A605A68013942EA4132CB
:100660005A60DA6AE16922F47002DA62DA6A013900
:1006700042EA0152DA629A6894F8301022F4007269
:100680009A609A6842EA41229A609A68616922F403
:1006900080629A609A68002042EA81229A606064CF
:1006A000236C23F0030343F001032364002384F845
:1006B0003C3038BD9A6822F070629A609A6822F0E5
:1006C0004052B2E75A6822F40062C9E70120EDE720
:1006D000012038BD002301400100000FF7B50023C1
:1006E000019390F83C30012B6ED00D6804688A6845
:1006F0000123092D80F83C30AEB22AD906EB46031F
:10070000E7681E3B4FF0070E0EFA03FE27EA0E07BE
:10071000E760E76802FA03F33B43E3604A68062AAE
:100720004FEA820325D81344676B591F1F238B4060
:1007300027EA03036363626B06FA01F11143616305
:10074000324B9C4234D0002380F83C30184603B032
:10075000F0BD276905EB45034FF0070E0EFA03FEC7
:1007600027EA0E072761276902FA03F33B43236157
:10077000D4E70C2A0ED81344216BA3F123021F23C4
:10078000934021EA03032363236B06FA02F21A4320
:100790002263D5E71344E16A413B1F229A4021EAD4
:1007A0000202E262E26A06FA03F11143E162C7E77C
:1007B000122D0BD1164B5A6822F400025A605A6867
:1007C00042F480025A60BEE70220C0E7114B9D420E
:1007D00001D0112DB7D10E4B5A6822F480025A6015
:1007E0005A6842F400025A600A4B9D42ABD10A4B50
:1007F0000A4A1B68B3FBF2F20A2353430193019B9D
:10080000002BA0D0019B013BF8E700BF0020014076
:1008100000230140120000100C00002040420F0095
:10082000074AD36823F4E0631B041B0C43F0BF6347
:10083000000243F4003300F4E0600343D3607047E8
:1008400000ED00E0174B30B5DC68C4F30224C4F1BE
:100850000703251D042B28BF0423062D4FF0010597
:1008600005FA03F303F1FF338CBF033C0024194066
:10087000A14005FA04F4013C2240002842EA0102AA
:100880004FEA0212ADBF00F1604000F00F00064BCE
:1008900000F56140B5BFD2B2D2B21A5480F800233D
:1008A00030BD00BF00ED00E014ED00E0002808DBE3
:1008B0004209012300F01F0003FA00F0014B43F846
:1008C0002200704700E100E070B5044629B14FF402
:1008D0000063C3604FF480438360E3692268E0688B
:1008E0001568002BA36843EA0003304843F4007303
:1008F00000EA05000CBF4FF48061002103430B4365
:10090000136001201568FFF72FFE236840221D6049
:1009100001205A605D68FFF727FE23685D600025AF
:100920009D60DD609A6922F0BE021204120C42F052
:1009300080029A6101209E69FFF716FE236801205C
:100940009E61DD61DD69FFF70FFE2268184BD561FE
:1009500041F21805012051590B4043F0087343F050
:10096000040353515659FFF7FFFD2368114A5E51A6
:1009700003F5805301201A601D68FFF7F5FD22681A
:1009800002F580531D60A369012B07D141F21C01C0
:10099000535843F4803343F0400353506369064A8D
:1009A000998811601A68054B1A6070BD0F8120FF8D
:1009B000233FDEF88020C102408002404480024094
:1009C000F8B590F84430822B0546164630D00268C0
:1009D000822380F844301369890101F4F86403F03C
:1009E0001C012143048AE402A4B20C4344F0010434
:1009F0001461FFF7B3FD074614F0010007D12B681F
:100A00005B699BB23360012385F84430F8BDFFF782
:100A1000A5FDC01BB0F5803F07D3012385F8443006
:100A2000002385F845300320F8BD2B681C69E3E7F7
:100A30000220F8BD90F84430422B70B505462ED008
:100A4000422380F8443003688C01186904F4F86488
:100A500044F0030400F01C0020432C8AE402A4B2FA
:100A6000044392B25A611C61FFF778FD064614F008
:100A7000010003D1012385F8443070BDFFF76EFDFE
:100A8000801BB0F5803F07D3012385F84430002355
:100A900085F84530032070BD2B681C69E7E702200C
:100AA00070BD0000F7B5002300930446002800F055
:100AB000DE8090F8443003F0FF021BB980F8452037
:100AC00002F002FC002301936A4B5A6C42F480420C
:100AD0005A645B6C03F480430193019B664B5A6834
:100AE00022F400025A605A68216A0A435A60236855
:100AF00003F580531A6842F001021A60FFF72EFDD9
:100B00000546236803F580521268D0071DD41D697D
:100B100001F0BEF8594B5A4A0344934225F01C0594
:100B200022D845F0080523684FF400421D610021DA
:100B30002046FFF77FFF054668B3012120460125C7
:100B4000FFF7C2FE84F844500BE0FFF707FD401B9F
:100B5000B0F5FA7FD5D90325002384F8445084F8F2
:100B60004530284603B0F0BD464B474A0344934204
:100B700002D845F00C05D6E7444B454A034493425E
:100B8000D1D9444B444A0344934294BF45F00405F1
:100B900045F01005C7E7FF20FFF7E6FC6368002B70
:100BA00053D0FFF7DBFC41F2883706466A46012145
:100BB0002046FFF705FFFFF7D1FC801BB8420BD999
:100BC00001212046FFF780FE012384F844300023F2
:100BD00084F845300325C4E7009B5907E6D54FF458
:100BE000805200212046FFF725FF0028A5D1FFF7FE
:100BF000B5FC41F2883706466A4601212046FFF7D8
:100C0000DFFEFFF7ABFC801BB842D9D8009B9A06E9
:100C1000F2D56A461F212046FFF7D2FE00288CD16C
:100C2000009B13F0100218BF4FF400625B074CBF2B
:100C300000234FF48043E260A36000212046FFF7C9
:100C400043FE012384F844308BE7A368E2685B0825
:100C500043EAD20292B229462046FFF7EBFE002873
:100C60007FF46BAF40F6FF70FFF77EFCE5E70125F0
:100C700077E700BF003802400038014000D3CEFEC5
:100C8000BFE1E40040F1E9FD3F787D0100796CFCB3
:100C9000FF596202001F0AFA7FF0FA022DE9F04FB5
:100CA00085B00B68DFF8C4816E4ADFF8C491019308
:100CB00000234FF0010E019C0EFA03FE0EEA04061B
:100CC000B64540F0B6804C6824F01007022F16D1CC
:100CD0004FEAD30A00EB8A0A03F0070BDAF8205038
:100CE0004FEA8B0B4FF00F0C0CFA0BFC25EA0C0CA7
:100CF0000D6905FA0BF545EA0C05CAF820504FEAD4
:100D0000430A0325D0F800B005FA0AF5ED4304F0D4
:100D1000030C0BEA050B0CFA0AFC013F4CEA0B0C26
:100D2000012FC0F800C011D8876807EA050BCF680B
:100D300007FA0AFC4CEA0B078760476827EA0E0EA1
:100D4000C4F300179F4047EA0E074760C7683D405D
:100D50008F6807FA0AF73D43C560E50069D54FF093
:100D6000000BCDF80CB0D8F844703F4D47F48047E5
:100D7000C8F84470D8F8447007F480470397039F7D
:100D800023F0030707F1804707F59C3703F0030CB6
:100D9000D7F808A04FEA8C0C4FF00F0E0EFA0CFE9D
:100DA000A8422AEA0E0E4BD005F58065A84249D02C
:100DB00005F58065A84247D005F58065A84245D075
:100DC00005F58065A84243D0484543D005F5006548
:100DD000A84241D005F58065A8423FD005F5806561
:100DE000A8423DD005F58065A84214BF0A25092513
:100DF00005FA0CF545EA0E05BD601568F74314F4D5
:100E0000803F0CBF3D4035431560556814F4003FEA
:100E10000CBF3D4035435560956814F4801F0CBFEE
:100E20003D4035439560D568A40254BF3D403543ED
:100E3000D5600133102B7FF43CAF05B0BDE8F08FD7
:100E40005D46D5E70125D3E70225D1E70325CFE7A6
:100E50000425CDE70525CBE70625C9E70725C7E724
:100E60000825C5E7003C0140000002400038024070
:100E7000001402400AB1816170470904FBE70000D9
:100E800008B5044B5969014202D0586102F038FD9F
:100E900008BD00BF003C014001684B6913F480634A
:100EA0004FF0000210D06FF480634B612023026387
:100EB00080F83D3080F83E20036C80F83C2043F001
:100EC0000403036401207047184670472DE9F84376
:100ED000044617469946C1F307488EB22568B8F113
:100EE000010F0CBF6B69AB6936EA030314BF012025
:100EF000002008B9BDE8F8836B695A0516D52B6840
:100F000043F400732B606FF480636B612022002335
:100F1000236384F83D2084F83E30226C42F00402C2
:100F2000226484F83C300120BDE8F8837B1CD5D0D6
:100F3000FFF714FBA0EB0900874201D3002FCDD1AE
:100F400000232022236384F83D2084F83E30226C65
:100F500042F02002E4E770B504460D4616462368C9
:100F60005B695B0701D5002070BD2046FFF794FF49
:100F7000A8B96A1CF3D0FFF7F1FA801B854201D3B0
:100F8000002DECD100232022236384F83D2084F837
:100F90003E30226C84F83C3042F020022264012072
:100FA00070BD70B504460D4616462068436913F0BF
:100FB000400301D0002070BD4269D2060ED56FF00B
:100FC000100242612022236384F83D2084F83E30E1
:100FD000226C226484F83C30012070BDFFF7BEFA19
:100FE000801BA84201D8002DDFD1002320222363DB
:100FF00084F83D2084F83E30226C42F02002E8E77D
:101000002DE9F843089E044690461F46C1F3074960
:101010008DB22368B9F1010F0CBF5B699B6935EA9A
:1010200003030CBF01230023434502D00020BDE889
:10103000F8837B1CEDD0FFF791FA801B874201D328
:10104000002FE6D100232022236384F83D2084F87A
:101050003E30226C84F83C3042F0200222640120B1
:10106000BDE8F88370B504460D46164623685B69F3
:101070001B0601D5002070BD2046FFF70DFFA8B963
:101080006A1CF3D0FFF76AFA801B854201D3002D5A
:10109000ECD100232022236384F83D2084F83E30E5
:1010A000226C84F83C3042F020022264012070BDA2
:1010B00070B5044608B9012070BD90F83D3003F0CA
:1010C000FF021BB980F83C2002F0E0FB22682423D9
:1010D00084F83D30136823F00103136000F0DEFD57
:1010E0006568414B9D424DD8404B9842E3D92268F8
:1010F0003F495368B0FBF1F123F03F030B435360CA
:10110000136A23F03F03013119431162D169364B51
:1011100021F44F419D4221F0FF0100F1FF3048D8FA
:101120006D00B0FBF5F00130C0F30B03042B38BFAA
:1011300004230B43D3611168206AE36921F0C001E5
:1011400003430B4313609168E068236921F4034172
:10115000034321F0FF010B439360D168A0696369E9
:1011600021F0FF0103430B43D360136843F00103F5
:10117000136000202023206484F83D30206384F82D
:101180003E0070BD1B4B984295D92268184E53689B
:10119000B0FBF6F623F03F0333435360136A4FF47A
:1011A0009671714323F03F034FF47A76B1FBF6F169
:1011B000A9E7A36853B905EB4503B0FBF3F0431C63
:1011C000C3F30B036BB143F40043B2E719236B4342
:1011D000B0FBF3F0431CC3F30B0313B143F44043E0
:1011E000A7E70123A5E700BFA08601007F841E00BA
:1011F00040420F00FF083D002DE9FF4104461F4615
:101200000D469046FFF7AAF994F83D30202B06468C
:1012100004D00225284604B0BDE8F08100901923CF
:10122000012258492046FFF7EBFE0028F1D194F83F
:101230003C30012BEDD0012384F83C3023681A6840
:10124000D2075EBF1A6842F001021A601A6822F4DF
:1012500000621A60212284F83D20102284F83E208A
:10126000002222646785628D2285474AE262E26A33
:10127000C4F82480082A04D0012A02D012F5803F45
:1012800004D11A6842F480721A6002E0226B122ABA
:10129000F7D000960A9B00224FF001112046FFF77D
:1012A000AFFE08B10125B5E723692268B3F5804F89
:1012B00013D105F0FE05156133460A9A33492046DD
:1012C000FFF704FE05460028ECD1236803905A6915
:1012D00003929B690393039B44E0EB1103F0060325
:1012E00043F0F00313612A490A9A33462046FFF778
:1012F000EDFD0028D6D12368EDB21D61DCE7324652
:101300000A992046FFF7AEFE40B1236C042B01BFC3
:101310002268136843F400731360C3E7636A2068AC
:101320001A4612F8011B01616262628D013A92B2A3
:101330006285228D4769511E89B27F0721850AD5B2
:1013400049B15978016102336362638D013B9BB2FD
:10135000023A6385228532460A992046FFF7FBFD53
:101360000028D2D1238D002BC9D121680A6842F40C
:1013700000720A60202284F83D2084F83C3084F812
:101380003E3047E7020010000000FFFF02000100AE
:10139000080001002DE9F043044689B098460F4645
:1013A0009146109EFFF7DAF894F83D30202B054661
:1013B00004D00227384609B0BDE8F0830090192315
:1013C0000122A6492046FFF71BFE0028F1D194F820
:1013D0003C30012BEDD0012384F83C3023681A689F
:1013E000D0075EBF1A6842F001021A601A6822F440
:1013F00000621A60222284F83D20102284F83E20E8
:1014000000222264A4F82A80628D2285944AE26236
:10141000E26A1968C4F8249041F48061082A1960CE
:1014200004D0012A02D012F5803F04D11A6842F498
:1014300080721A6002E0226B112AF7D000953346C1
:1014400000224FF001112046FFF7DAFD08B1012715
:10145000B0E72369B3F5804F236840D147F0010717
:10146000FFB21F612B4632467E492046FFF72EFD14
:1014700007460028EBD1228D2368002A63D0012A79
:1014800074D11A6822F480621A6004975A6904922F
:101490009A690492049A1A6842F400721A60DFF89A
:1014A000CC81238D002B58D0032B00F2BA80012B66
:1014B00077D12A4631462046FFF773FD0028C6D172
:1014C0002268636A12691A70636A01336362238D4A
:1014D000013B2385638D013B9BB26385E1E74FEAC6
:1014E000E71808F0060848F0F0021A615E492B463A
:1014F00032462046FFF7EAFC0028A8D12368594964
:10150000FFB21F6132462B462046FFF7DFFC024642
:1015100000289CD123680790596907919969079120
:101520000799196841F48071196020460095334687
:101530004FF00111FFF764FD002888D1226848F0C0
:10154000F10313618EE703975A6903929A69039234
:10155000039A1A6842F400721A60202384F83D301E
:10156000002384F83E3084F83C3023E7022A1A68CE
:101570000DD122F480621A601A6842F400621A6087
:1015800005975A6905929B690593059B87E742F485
:1015900080621A6006975A6906929B690693069BB9
:1015A0007DE7022B009533464FF00002414620466E
:1015B0001AD1FFF725FD00287FF449AF23681A6888
:1015C00042F400721A60626A1B691370626A531CEB
:1015D0006362238D013B2385638D013B9BB2638551
:1015E00023681B6953706FE7FFF70AFD0246002866
:1015F0007FF42DAF2368196821F480611960616A56
:101600001B690B70636A009501336362238D013B94
:101610002385638D013B9BB263854146334620465B
:10162000C7E72A4631462046FFF7BBFC00287FF477
:101630000EAF2268636A12691A70626A531C636291
:10164000238D013B2385638D013B9BB2638523681A
:10165000596949077FF525AFC3E700BF02001000B5
:101660000000FFFF0200010008000100040001006B
:1016700090F83D20D2B2202A10B516D1242380F84C
:101680003D3003681C6824F001041C605C6A24F08F
:1016900010045C625C6A21435962196841F00101DF
:1016A000196080F83D20002010BD022010BD30B52B
:1016B00090F83D40E4B2202C16D10268242380F833
:1016C0003D30156825F001051560556A4FF6F07339
:1016D0002B400B439BB25362136843F0010313602A
:1016E00080F83D40002030BD022030BDF0B50446FA
:1016F0008BB060B390F8BD33056803F0FF021BB9EF
:1017000080F8BC2302F0CCFB032384F8BD33EB6BE1
:10171000254613F4807355F8100B08BF236100F0C1
:10172000D5FD0FCD6E460FC60FCD0FC695E8030051
:1017300086E803002546271D97E80E0055F8100B94
:1017400000F084FD064620B1022384F8BD33012554
:1017500050E00146206800F0BFFD3046D4F804E0B8
:101760001C264FF0010C0146C2B2964500F1010063
:101770001CD800231C261946D8B2864503F1010364
:1017800022D80FCD6E460FC60FCD0FC695E80300C9
:1017900086E8030097E80E00206800F0DFFD0123D3
:1017A000054600B3022284F8BD23D0E706FB0243BE
:1017B00083F83DC083F83C20A3F8422083F83F1013
:1017C000596499641965CFE706FB004282F8FD1160
:1017D00082F8FC0182F8FF11C2F80412C2F8081264
:1017E000C2F81012C8E784F8380084F8BD332068C6
:1017F00000F078FE28460BB0F0BD00002DE9F34163
:10180000044618B9012002B0BDE8F0810368DD0785
:1018100010D42368980758D423681A0700F19A80D7
:1018200023685B0700F1B880A269002A40F01981A3
:101830000020E8E7A64B9A6802F00C02042A07D0C1
:101840009A6802F00C02082A0AD15B68590207D58F
:101850009F4B1B689A03DCD56368002BD9D1D1E775
:1018600063689B4DB3F5803F11D12B6843F48033FF
:101870002B60FEF773FE964D06462B689B03C8D47B
:10188000FEF76CFE801B6428F7D90320BBE7B3F595
:10189000A02F04D12B6843F480232B60E5E72A684E
:1018A00022F480322A602A6822F480222A60002BE7
:1018B000DFD1FEF753FE06462B689F03A9D5FEF73E
:1018C0004DFE801B6428F7D9DFE7814B9A6812F040
:1018D0000C0F07D09A6802F00C02082A11D15B683D
:1018E0005E020ED47A4B1A68950702D5E268012A87
:1018F00088D11A68216922F0F80242EAC1021A600E
:101900008AE7E268734BB2B101221A60FEF726FE45
:101910006F4D06462B68980707D52B68226923F080
:10192000F80343EAC2032B6076E7FEF717FE801B3D
:101930000228EFD9A9E71A60FEF710FE644D0646AB
:101940002B6899077FF568AFFEF708FE801B022819
:10195000F6D99AE76269604B7AB101221A60FEF704
:10196000FDFD5B4D06466B6F9F073FF559AFFEF7D8
:10197000F5FD801B0228F6D987E71A60FEF7EEFD19
:10198000534D06466B6F98077FF54AAFFEF7E6FDAD
:10199000801B0228F6D978E74D4B1A6C12F0805262
:1019A00028D101921A6C42F080521A641B6C03F029
:1019B00080530193019B0126484D2B68D9051BD507
:1019C000A368434D012B27D12B6F43F001032B67F5
:1019D000FEF7C4FD3E4D074641F288382B6F9B074A
:1019E00039D5002E3FF420AF394A136C23F08053D1
:1019F000136419E70026DFE72B6843F480732B603C
:101A0000FEF7ACFD07462B68DA05D9D4FEF7A6FD34
:101A1000C01B0228F7D938E7052B04D12B6F43F000
:101A200004032B67D0E72A6F22F001022A672A6F8E
:101A300022F004022A67002BCAD1FEF78FFD41F283
:101A4000883807462B6F9807CBD5FEF787FDC01B5C
:101A50004045F7D919E7FEF781FDC01B4045BDD9C8
:101A600013E71B4DAB6803F00C03082B3FF4CAAE21
:101A70001B4E0023022A336034D1FEF76FFD074668
:101A80002B6899011ED4226AE3691343626A43EA10
:101A90008213E26A43EA0263A26A0D4C5208013AD9
:101AA00043EA02436B6001233360FEF757FD0546AE
:101AB00023689A013FF5BCAEFEF750FD401B02289B
:101AC000F6D9E2E6FEF74AFDC01B0228D8D9DCE6CB
:101AD0000038024000004742800E4742007000403C
:101AE00060004742FEF73AFD04462B689B017FF5F4
:101AF0009FAEFEF733FD001B0228F6D9C5E600BFF6
:101B0000134908B58B6803F00C03042B03D0082B92
:101B100003D0104808BD104808BD4A684B684968A2
:101B200013F4800314BF0C480A48C1F3881118BF8E
:101B3000002302F03F02A1FB0001FEF761FB044B12
:101B40005B68C3F3014301335B00B0FBF3F008BDF6
:101B5000003802400024F40000127A002DE9F04120
:101B60000D46044610B90120BDE8F081444B1A68C7
:101B700002F00F028A4228D321688F072DD4C807AC
:101B800040D43F4B1A6802F00F02954266D3226898
:101B900051076CD4130707D53A4A2169936823F497
:101BA000604343EAC1039360FFF7AAFF354B364A0F
:101BB0009B68C3F30313D35CD840344B18600020F8
:101BC00001F072FF0020BDE8F081CAB21A701B68F4
:101BD00003F00F039942C6D1CEE72A4B11F0040F50
:101BE0001EBF9A6842F4E0529A600E0742BF9A689C
:101BF00042F460429A609A68A06822F0F0020243C0
:101C00009A60BCE762681F4B012A1DD11B6813F460
:101C1000003FA8D01B4EB36823F003031343B36007
:101C2000FEF79CFC41F288380746B368626803F00F
:101C30000C03B3EB820FA4D0FEF790FCC01B404511
:101C4000F3D90320BDE8F081911E01291B6802D859
:101C500013F0007FDDE713F0020FDAE7EAB21A7043
:101C60001B6803F00F039D427FF47DAF8FE70549AA
:101C7000E0688B6823F4E05303438B608AE700BF7E
:101C8000003C024000380240A34000080C00002045
:101C9000014B1868704700BF0C000020044B054A38
:101CA0009B68C3F38223D35C034A1068D840704713
:101CB00000380240B34000080C000020044B054AE5
:101CC0009B68C3F34233D35C034A1068D840704723
:101CD00000380240B34000080C0000200F230360CE
:101CE0000B4B9A6802F0030242609A6802F0F0021D
:101CF00082609A6802F4E052C2609B68DB0803F4D9
:101D0000E0530361034B1B6803F00F030B60704744
:101D100000380240003C024070470368DA6842F035
:101D20000102DA609A6802F00702062A1EBF1A68EA
:101D300042F001021A6000207047704770477047F8
:101D4000704703681A69910710B504460ED5DA6822
:101D500092070BD56FF002021A619B6901229B0763
:101D6000027777D0FFF7EAFF0023237723681A6909
:101D7000500710D5DA6851070DD56FF004021A61CB
:101D80009B69022213F4407F2277204668D0FFF738
:101D9000D5FF0023237723681A6912070FD5DA6865
:101DA00010070CD56FF008021A61DB69042299074D
:101DB000227720465AD0FFF7C1FF002323772368FC
:101DC0001A69D20610D5DA68D0060DD56FF0100268
:101DD0001A61DB69082213F4407F227720464BD03A
:101DE000FFF7ACFF0023237723681A69D10708D5D2
:101DF000DA68D20705D56FF001021A61204601F0BA
:101E000021FE23681A69100608D5DA68110605D57F
:101E10006FF080021A61204600F0B7F823681A6953
:101E2000520608D5DA68500605D56FF040021A61EF
:101E30002046FFF785FF23681A69910622D5DA68E4
:101E400092061FD56FF0200220461A61BDE81040AF
:101E500000F09AB8FFF771FF2046FFF770FF83E7A5
:101E6000FFF76BFF2046FFF76AFF92E7FFF765FF7A
:101E70002046FFF764FFA0E7FFF75FFF2046FFF76C
:101E80005EFFAFE710BD0000304A0368904212D0F9
:101E9000B0F1804F0FD0A2F57C4290420BD002F5FA
:101EA0008062904207D002F58062904203D002F532
:101EB0007842904219D14A6823F070031343234AB1
:101EC000904229D0B0F1804F26D0A2F57C429042BA
:101ED00022D002F5806290421ED002F580629042CC
:101EE0001AD002F57842904216D0194A904213D087
:101EF00002F5806290420FD002F5806290420BD0D2
:101F0000A2F59832904207D002F58062904203D049
:101F100002F58062904203D1CA6823F440731343F0
:101F20004A6923F08003134303608B68C3620B6824
:101F30008362064B984203D003F58063984201D137
:101F40000B69036301234361704700BF0000014038
:101F50000040014010B50446A0B190F83D3003F0B8
:101F6000FF021BB980F83C20FFF7D6FE022384F85D
:101F70003D302068211DFFF787FF012384F83D30A5
:101F8000002010BD012010BD704770472DE9F047BB
:101F90000668C2683369C16923F44053134333614F
:101FA000044683680069F2680343606922F41642BC
:101FB000034322F00C020B431343F3607369A269DD
:101FC00023F440731343B1F5004F73617A4B7CD116
:101FD0009E4203D003F580639E4244D1FFF76EFE1C
:101FE000192505FB00F360684FF064094000B3FB5E
:101FF000F0F3B3FBF9F34FEA0318FFF75FFE6368F2
:1020000068435B00B0FBF3F7FFF758FE6368684373
:102010005B00B0FBF3F3B3FBF9F309FB1373DB00D5
:102020003233B3FBF9F35B0003F4F877FFF746FEB6
:10203000626868435200B0FBF2FAFFF73FFE636844
:1020400068435B00B0FBF3F3B3FBF9F309FB13A3A5
:10205000DB003233B3FBF9F303F0070343443B44A3
:10206000B360BDE8F087FFF719FE192505FB00F303
:1020700060684FF064094000B3FBF0F3B3FBF9F381
:102080004FEA0318FFF70AFE636868435B00B0FB82
:10209000F3F7FFF703FE636868435B00B0FBF3F3FD
:1020A000B3FBF9F309FB1373DB003233B3FBF9F332
:1020B0005B0003F4F877FFF7F1FD626868435200B4
:1020C000B0FBF2FAFFF7EAFDB9E79E4202D03B4BC4
:1020D0009E4240D1FFF7F2FD676819254FF0640971
:1020E00005FB00F3BF00B3FBF7F3B3FBF9F31F01EC
:1020F000FFF7E4FD636868439B00B0FBF3F8FFF76C
:10210000DDFD636868439B00B0FBF3F3B3FBF9F3B9
:1021100009FB13831B013233B3FBF9F303F0F0081F
:10212000FFF7CCFD626868439200B0FBF2FAFFF75C
:10213000C5FD636868439B00B0FBF3F3B3FBF9F3A1
:1021400009FB13A31B013233B3FBF9F303F00F03B5
:1021500043EA080383E7FFF7A1FD676819254FF0FD
:10216000640905FB00F3BF00B3FBF7F3B3FBF9F31E
:102170001F01FFF793FD636868439B00B0FBF3F812
:10218000FFF78CFD636868439B00B0FBF3F3B3FB80
:10219000F9F309FB13831B013233B3FBF9F303F0AB
:1021A000F008FFF77BFD626868439200B0FBF2FA2B
:1021B000FFF774FDBDE700BF0010014000140140AF
:1021C00010B5044640B390F8393003F0FF021BB954
:1021D00080F8382001F010FE2268242384F839307A
:1021E000D36823F40053D3602046FFF7CFFE236863
:1021F0001A6922F490421A615A6922F02A025A613D
:10220000DA6842F40052DA6000202023E06384F8A8
:10221000393084F83A3010BD012010BD0A4B013B23
:1022200001D1032070470269002AF8DA0369064ADF
:1022300043F001030361013AF3D0036913F0010392
:10224000F9D11846704700BF410D030084B038B57E
:1022500005AD85E80E000A9B012B044625D1836B52
:1022600023F480338363C36823F4840323F040039F
:10227000C360C36823F44013C360119B012B02BFEA
:10228000C36843F48013C360FFF7C8FF089B012BAA
:1022900007D1A36843F00603A360A36843F02003BB
:1022A000A360BDE8384004B07047C36843F0400302
:1022B000C360FFF7B3FF0E9B23B9A36B43F48033D6
:1022C000A363E3E7A36B23F48033F9E7836823F088
:1022D000010383600020704708B5C368012923F01B
:1022E000C043C36008D1C36843F00053C3603220C9
:1022F000FEF73AF9002008BD19B9C36843F08043DE
:10230000F4E7012008BD0000890141F02001064AE0
:102310000161013A05D0036913F02003F9D1184691
:1023200070470320704700BF410D03001023064A89
:102330000361013A05D0036913F01003F9D118467F
:1023400070470320704700BF410D0300D0F80038EC
:102350001943C0F8001800207047000084B02DE930
:10236000F047044609A880E80E0000230C9F139E46
:102370008846194603F1400204EB820201330F2B19
:102380005160F7D1002E73D1A36B43F40013A36304
:10239000A36B23F40023A363A36B23F48023A36321
:1023A0000023C4F8003ED4F80038C4F800380E9B6F
:1023B000012B04F5006565D10B99002960D12046F9
:1023C000FFF7C4FF10212046FFF79EFF014620467D
:1023D000FFF7ACFF002857D1081C18BF01200023CD
:1023E0002B6104F510626B611946EB614FF0904E62
:1023F0004FF0006C4FF67F39434547D1002104F57B
:1024000030628E464FF0904C4FF000684FF67F39A7
:102410008B424ED12B69012F23F480732B6107D19E
:102420002E4B2B632B6B43F4803343F003032B635E
:102430000023A3616FF0804363611FB9A36943F078
:102440001003A361A269264B1343A3610F9B1BB129
:10245000A36943F00803A361012E01BFA36943F000
:10246000804343F00403A361BDE8F04704B0704724
:10247000236823F400132360A36B43F400238EE747
:1024800019469CE703219AE70120A8E7D2F800A0AB
:10249000BAF1000F0BDA3BB9C2F800C01161013389
:1024A000C2F808902032A7E7C2F800E0F6E7116012
:1024B000F4E7D2F800A0BAF1000F0CDA41B9C2F883
:1024C0000080C2F810E00131C2F8089020329FE786
:1024D000C2F800C0F5E7C2F800E0F2E700018000B2
:1024E00000383C8008B5D0F8043843F00203C0F847
:1024F00004380320FEF738F8002008BD08B500F0C6
:10250000AFFC002008BD70B5054646692A694068E1
:10251000B5F908400B4686B0296876B1AD6965B15A
:10252000842C14BF0334002402958DE8500000F081
:1025300033FC0590059806B070BD842C14BF03349D
:10254000002405AD92B28DE8300000F05CFC01285B
:10255000F0D00020EFE708B5002808BF012000F008
:10256000C7FD002008BD00F1080343604FF0FF32B3
:10257000C36003610023826003607047002303612E
:10258000704743684B609A688A609A6851609960A6
:10259000036808610133036070470A68531C30B553
:1025A0000AD103695A684A6091608B605960036878
:1025B00008610133036030BD00F108035C682568E1
:1025C000AA42EFD32346F9E74168826803698A602B
:1025D000826851605968884208BF5A6000220261CF
:1025E0001A68013A1A6018687047000082B0002328
:1025F00001930D4B1B68013308D04FF0500383F358
:102600001188BFF36F8FBFF34F8FFEE74FF050037A
:1026100083F31188BFF36F8FBFF34F8F019B002BA4
:10262000FCD002B0704700BF0400002008480068DA
:10263000006880F308884FF0000080F3148862B6C9
:1026400061B6BFF34F8FBFF36F8F00DF00BF000095
:1026500008ED00E0DFF80C00016841F47001016052
:102660007047000088ED00E04FF0807340F8043CB4
:10267000074B40F80C3C21F001016FF0020340F8D9
:10268000081C40F8202C40F8243C4438704700BF18
:10269000ED25000800000000000000000000000020
:1026A000074B19680868B0E8F04F80F30988BFF35A
:1026B0006F8F4FF0000080F311887047AFF30080F8
:1026C0004C3C00204FF0500383F31188BFF36F8F11
:1026D000BFF34F8F0A4A13680133012B13600DD1EA
:1026E000084B1B6813F0FF0F08D04FF0500383F323
:1026F0001188BFF36F8FBFF34F8FFEE7704700BFA6
:102700000400002004ED00E0084A136843B94FF0CC
:10271000500383F31188BFF36F8FBFF34F8FFEE732
:10272000013B13600BB983F311887047040000204C
:10273000EFF30980BFF36F8F154B1A681EF0100F6F
:1027400008BF20ED108A20E9F04F10602DE9090044
:102750004FF0500080F31188BFF34F8FBFF36F8F9E
:1027600000F0EAFC4FF0000080F3118809BC196802
:102770000868B0E8F04F1EF0100F08BFB0EC108AE8
:1027800080F30988BFF36F8F704700BFAFF30080FD
:102790004C3C002008B54FF0500383F31188BFF381
:1027A0006F8FBFF34F8F00F099FB18B1034B4FF0C1
:1027B00080521A60002383F3118808BD04ED00E005
:1027C000084A0949002313600B60084B4FF47A71E3
:1027D0001B68B3FBF1F30649013B0B600723136051
:1027E000704700BF10E000E018E000E00C0000209F
:1027F00014E000E0394B3A4A13B51968914208D108
:102800004FF0500383F31188BFF36F8FBFF34F8FE7
:10281000FEE71A68334B9A4208D14FF0500383F316
:102820001188BFF36F8FBFF34F8FFEE72E4B1A78DF
:10283000D2B20192FF221A701B782C4ADBB28DF8BB
:1028400003309DF8033003F050031370284B072228
:102850001A6000219DF80300000602F1FF340DD438
:1028600001B11A601A68032A11D04FF0500383F3A4
:102870001188BFF36F8FBFF34F8FFEE79DF80320E2
:102880005200D2B28DF8032001212246E2E7120263
:1028900002F4E0621A60019B134ADBB21370154B1D
:1028A0001A6842F470021A601A6842F070421A60A4
:1028B000FFF786FF104B00241C60FFF7CBFE0F4A8A
:1028C000136843F040431360FFF7B0FE00F034FCA0
:1028D000FFF78CFE204602B010BD00BF00ED00E007
:1028E00071C20F4170C20F4100E400E02C000020D3
:1028F0003000002020ED00E00400002034EF00E074
:1029000010B50F4B1A68824218D35C6819198842B7
:1029100001BF4168184609195960446801198A4283
:1029200007D1084909688A421FBF5168126809190E
:1029300041609842026018BF186010BD1346E1E77D
:10294000443C0020340000202DE9F041044600F012
:10295000BDFA3E493E4D0B680BBB3E4A56071FBFB2
:10296000D01D20F0070002F570531B1A14BF024659
:102970004FF470531344083B23F00703364E0B60AB
:1029800000207060326058601860981A1360334BF2
:1029900050601860324B18604FF000432B602F6876
:1029A000274216D1002C41D004F1080358071CBF60
:1029B00023F00703083363B1294A1668B3429046EF
:1029C00007D8254A15686868834204D809688D428B
:1029D00007D100242AE02C68002CF7D02A4625468F
:1029E000F1E7296814681160C21A102A0FD9E81893
:1029F000410708D04FF0500383F31188BFF36F8F66
:102A0000BFF34F8FFEE742606B60FFF779FF13491A
:102A10006B680868F61A1F4386424FF00003C8F837
:102A2000006038BF0E6008346F602B6000F0E8FA79
:102A3000630708D04FF0500383F31188BFF36F8F03
:102A4000BFF34F8FFEE72046BDE8F0813400002041
:102A5000383C002038000020443C0020403C00204E
:102A60003C3C002010B5044670B3184A50F8043CB2
:102A70001268134208D14FF0500383F31188BFF35B
:102A80006F8FBFF34F8FFEE750F8081C41B14FF036
:102A9000500383F31188BFF36F8FBFF34F8FFEE7AF
:102AA00023EA020340F8043C00F010FA084A54F804
:102AB000043C1168A4F108000B441360FFF720FFE9
:102AC000BDE8104000F09CBA10BD00BF383C0020AB
:102AD0003C3C00202DE9F0410646FFF7F3FD2D4B6D
:102AE0002D4C1A682D4F01321A602568002D45D1F2
:102AF00026601B68012B1CD178191435FFF733FDB4
:102B00008C2DF9D1DFF8C080254D4046FFF72BFD15
:102B10002846FFF728FD2348FFF725FD2248FFF749
:102B200022FD2248FFF71FFD214BC3F80080214BF7
:102B30001D60214A21491368086801331360F26A55
:102B400001239340034314200B6000FB0270311DEE
:102B5000FFF717FDFFF7D8FD194B1B6863B123681A
:102B6000DA6AF36A9A4207D2164B4FF080521A6023
:102B7000BFF34F8FBFF36F8FBDE8F081104B1B6821
:102B8000002BD6D12368DA6AF36A9A4298BF26608E
:102B9000CFE700BFE43C00204C3C0020583C002024
:102BA000103D00202C3D0020583D0020443D0020D9
:102BB000503C0020543C0020F43C0020F83C002015
:102BC000403D002004ED00E0FC3C0020064A136874
:102BD0001968064B19B94FF0FF321A607047126836
:102BE000D268D2685268F8E7503C0020243D0020AB
:102BF0002DE9F0470A9CDDF82480266B02F1804223
:102C0000013A06EB82069A4681464B1E26F00706DD
:102C100004F134020F31587802F8010B13F8010F58
:102C200008B18B42F7D1089D062D28BF0625002745
:102C3000E5626564201D84F84370A764FFF79EFC7D
:102C4000C5F1070504F11800FFF798FCE76424615B
:102C5000A561646284F85070524649463046FFF7D9
:102C600003FD2060B8F1000F01D0C8F80040BDE8B6
:102C7000F08710B590F8513004463BB9006BFFF770
:102C8000F1FE2046BDE81040FFF7ECBE012BF9D065
:102C9000022B08D04FF0500383F31188BFF36F8FDE
:102CA000BFF34F8FFEE710BD80B5DFF85C80124F99
:102CB000124C134D236863B9124B1B68012BF8D9D2
:102CC0004FF08053C8F80030BFF34F8FBFF36F8FC2
:102CD000EEE7FFF7F7FCFB68DE68301DFFF774FCDA
:102CE0002B68013B2B602368013B2360FFF70CFD41
:102CF0003046FFF7BEFFDDE7583D0020E83C0020EE
:102D0000E43C0020583C002004ED00E0F8B51B4BEB
:102D10001B4E1D680446306804300F46FFF754FC14
:102D2000334640B93168174EC96A3268012088407D
:102D300022EA00023260621C07D137B119681248DA
:102D40000431BDE8F840FFF71CBC2C441A68A542CA
:102D5000546007D90D4A10681968BDE8F84004317D
:102D6000FFF71BBC0A4A106819680431FFF715FC0D
:102D7000084B1A68944238BF1C60F8BD6C3D0020B7
:102D80004C3C0020F83C0020443D0020543C0020F6
:102D9000503C0020243D002070B586B00B9D0C9C5B
:102DA00045B94FF0500383F31188BFF36F8FBFF322
:102DB0004F8FFEE744B94FF0500383F31188BFF300
:102DC0006F8FBFF34F8FFEE754260496049E542E58
:102DD00008D04FF0500383F31188BFF36F8FBFF318
:102DE0004F8FFEE72563022584F8515005AD01950C
:102DF0000A9D02940095FFF7FBFE2046FFF76AFE4E
:102E0000059806B070BD2DE9F043074685B09000E7
:102E1000884616469946FFF797FD0546E8B15420C7
:102E2000FFF792FD0446A8B1002380F851300D9BB6
:102E3000056301930C9B0290009332464B4641463A
:102E40003846FFF7D5FE2046FFF744FE012005B0C7
:102E5000BDE8F0832846FFF705FE4FF0FF30F6E7A8
:102E600010B588B0002407AA06A905A80594069401
:102E700000F0F6FB059B0293069B0193009423460A
:102E8000079A0D490D48FFF787FF90B14FF05003A7
:102E900083F31188BFF36F8FBFF34F8F084B4FF051
:102EA000FF321A60074B01221A60074B1C60FFF7C4
:102EB000A1FC08B010BD00BF20400008A92C0008EC
:102EC000243D0020403D00206C3D0020024A136854
:102ED00001331360704700BFF03C00202DE9F84F2C
:102EE0003C4B1B68002B53D13B4B1C6801341C60CE
:102EF000BCB93A4B1A68126842B14FF0500383F3E1
:102F00001188BFF36F8FBFF34F8FFEE7344A196804
:102F1000106818601160334A136801331360FFF7BB
:102F200055FE314D314F2B689C424FF0000B3ED384
:102F3000DFF8A880DFF8C490D8F80020126872BBD0
:102F40004FF0FF322A6032E006F1040A5046FFF7E4
:102F50003BFBB16A19B106F11800FFF735FBF06AC7
:102F6000D9F80030012202FA00F11943204BC9F8C8
:102F700000104FF0140E51460EFB0030FFF701FB1E
:102F80003868F16AC26A914228BF4FF0010BD3E75B
:102F9000184A1368013313604FF0000B11E0D8F8A2
:102FA0000020D268D66871688C42CDD229603A6818
:102FB0000F4BD16A14224A439A58022A28BF4FF075
:102FC000010B0D4A1268002A18BF4FF0010B58463A
:102FD000BDE8F88FF03C00206C3D0020503C002004
:102FE000543C0020283D0020243D00204C3C002083
:102FF000583C0020EC3C0020703D0020F83C0020B4
:103000002DE9F843314C236843B94FF0500383F363
:103010001188BFF36F8FBFF34F8FFEE7FFF752FBAF
:103020002368013B236024682CB10024FFF76CFB6C
:103030002046BDE8F883264B1B68002BF5D0DFF84F
:10304000A890244FDFF8A480D9F80030E3B90CB180
:10305000FFF7BCFD204D2C6844B1204E0127FFF73F
:103060003DFF00B13760013CF9D12C601B4B1B6860
:10307000002BDAD01A4B4FF080521A60BFF34F8FFB
:10308000BFF36F8F0124D1E7D9F80C30DC68261D1F
:1030900004F11800FFF798FA3046FFF795FAE26A54
:1030A0003968012505FA02F314200B4300FB028066
:1030B00031463B60FFF765FA0A4BE26A1B68DB6A40
:1030C0009A4224BF054B1D60BEE700BFF03C0020C4
:1030D000E43C0020F83C0020EC3C0020703D002047
:1030E00004ED00E04C3C00202C3D0020583C00202A
:1030F00008B540B90E4B4FF080521A60BFF34F8FA6
:10310000BFF36F8F08BD0B4B196841B14FF05003EF
:1031100083F31188BFF36F8FBFF34F8FFEE7FFF785
:10312000D5FEFFF7F3FDFFF76BFF0028E2D008BDE7
:1031300004ED00E0F03C0020174B1A68174B10B567
:1031400012B101221A6010BD1A60154B1B68B3FA48
:1031500083F3DBB2C3F11F03142212495A438818C8
:103160008C5844B94FF0500383F31188BFF36F8F2D
:10317000BFF34F8FFEE744680832646844600A4436
:10318000944204BF62684260142202FB03135B682E
:10319000DA68054BD6E700BFF03C0020703D002008
:1031A000F83C0020583C00204C3C002030B585B055
:1031B00010220021684600F003FF1248124A002442
:1031C0004FF48033012580E81C00104B0461047625
:1031D00080F82040C4628362C460C56180F83040DA
:1031E0004561FDF7D5F908B100F036FC69460548A0
:1031F00002948DE83000FDF771FA08B100F02CFC64
:1032000005B030BDD03F0020002001400100000F7C
:1032100010B5044688B01422002103A800F0D0FEA7
:103220002268124B9A421ED103F58C330021019182
:103230005A6C0F4842F480725A645A6C02F48072DD
:103240000192019A02911A6B42F001021A631B6B00
:1032500003F001030293029B0123039303A90323B9
:103260000493FDF71BFD08B010BD00BF0020014016
:103270000000024007B51248124AC0F814D00123DA
:1032800080E80C000023802203828DF800308DF846
:1032900001208DF80330E1228DF804308DF80530DF
:1032A0008361C3614FF400038DF802200362FDF7D0
:1032B000F9FB08B100F0D0FB03B05DF804FB00BFE0
:1032C0002440002000800240F0B504468DB0142256
:1032D000002107A800F074FE22683D4B9A4274D189
:1032E000A3F59043002400941A6B3A4842F0007210
:1032F0001A631A6B02F000720092009A01941A6B22
:1033000042F080621A631A6B02F080620192019AA5
:1033100002941A6B42F000621A631A6B02F00062A8
:103320000292029A03941A6B42F004021A631A6B17
:1033300002F004020392039A04941A6B42F0010211
:103340001A631A6B02F001020492049A05941A6B34
:1033500042F002021A631A6B02F002020592059A09
:1033600006941A6B42F040021A631B6B03F0400391
:103370000693022703260B25069B0897322307A9ED
:1033800007930A960B95FDF789FC862307A9124837
:103390000793089709940A960B95FDF77FFC4FF465
:1033A000005307A90D480793089709940A960B95AF
:1033B000FDF774FC4FF4205307A9094807930897B9
:1033C00009940A960B95FDF769FC0DB0F0BD00BF9E
:1033D0000080024000080240000002400004024059
:1033E0000018024080B588B042F210732A4C009356
:1033F00008230DEB030221882848294E294F274D29
:10340000FDF7FAFE00238DF808308DF80930336897
:10341000002B3BD142F21078384600F0B7FC2188EF
:10342000CDF80080012302AA2846FDF7E5FE218899
:10343000CDF80080072305AA2846FDF7ABFF9DF8CD
:1034400014209DF815109DF81600C2F3021303EB2B
:10345000830302F00F0202EB4303134A1370C1F31C
:10346000021202EB820201F00F0101EB42020F494E
:103470000A70C0F3021101EB810100F00F0000EBB4
:1034800041010B4801700B4800F041FC4FF47A7089
:10349000FFF761F8BBE700BF08000020784000207C
:1034A0001C40002073400008CD3F00202040002039
:1034B000CC3F00207F4000082DE9F04F0124DFF8C9
:1034C00090B193B02546DBF80030012B26D1DFF810
:1034D00088915648DFF88481554F564E00F056FCCF
:1034E000D9F800A00AF1FF33042B10D8DFE803F06D
:1034F000031B260F5900504800F048FC012C4FF0E8
:103500000003C9F8003014BF54464FF0FF3498F858
:1035100000303A783178494800F0F9FB4FF47A707E
:10352000FFF719F8CFE70135454800F02FFC0023DD
:10353000042DC9F80030A8BF0125E8E7414800F094
:1035400025FC98F8002040480A23B2FBF3F103FB66
:10355000112202EB01128DF809203A78B2FBF3F147
:1035600003FB112202EB011231788DF80A20B1FB26
:10357000F3F203FB121303EB02138DF80B30334B02
:10358000198864234FF0000A009302AA0423C9F8A3
:1035900000A08DF808A0FDF72FFE2D4BC3F800A06A
:1035A000B5E72C4800F0F2FB0022022DC9F80020FC
:1035B00014D0032D23D0012DA9D133782344DBB2BD
:1035C000172B337002D9012C08BF32703378FF2BD0
:1035D0009DD1611C9BD11723337098E73B7823441E
:1035E000DBB23B2B3B7002D9012C08BF3A703B7811
:1035F000FF2B8CD1621C8AD13B233B7087E798F864
:1036000000302344DBB23B2B88F8003003D9012C77
:1036100008BF88F8002098F80030FF2B7FF477AFC0
:10362000631C04BF3B2388F8003070E72540000886
:1036300020400020CC3F0020324000087F4000089E
:103640004240000850400008784000200800002058
:103650001C4000206940000818400020CD3F002099
:10366000034B0360034B0B6080231360704700BF64
:10367000743F0020743D002070B5104C26460FCEDC
:103680008EB06D460FC596E8070085E8070000215B
:103690006846FEF738FF0A4B1C3418600FCC07ADA4
:1036A0000FC594E8070085E80700002107A8FEF78A
:1036B0002AFF044B18600EB070BD00BFE83F000841
:1036C0006C400020704000202DE9F0418CB01422A5
:1036D000002107A800F074FC00244E4B01941A6BE3
:1036E000DFF848814C4D4D4E42F004021A631A6BCC
:1036F00002F004020192019A02941A6B42F08002D5
:103700001A631A6B02F080020292029A03941A6BF7
:1037100042F001021A631A6B02F001020392039A4B
:1037200004941A6B42F002021A631A6B02F002024E
:103730000492049A05941A6B42F008021A631A6BF9
:1037400002F008020592059A06941A6B42F04002B4
:103750001A631B6B03F0400306932246404644F273
:103760008101069BFDF786FB224628464021FDF796
:1037700081FB4FF4005307A9294807930896099441
:10378000FDF78CFA0823079307A90323254808931C
:1037900001270994FDF782FA44F2810307A9404604
:1037A0000793089709940A94FDF778FA402307A92C
:1037B00028460793089709940A94FDF76FFA802327
:1037C00007A92846079308940994FDF767FAF023A0
:1037D00007A91548079308960994FDF75FFA224652
:1037E00005210A20FDF72EF80A20FDF75FF8224692
:1037F00005211720FDF726F81720FDF757F8224678
:1038000005212820FDF71EF82820FDF74FF80CB001
:10381000BDE8F0810038024000180240000011109D
:103820000008024000000240000C02400004024078
:1038300008B51348134BDFF850E04FF4804280E89E
:10384000084000238360C360026143618361C361F8
:103850000362FDF72DFC08B100F0FEF800210848D6
:10386000FDF706FF08B100F0F7F800210448FDF766
:103870001EFF18B1BDE8084000F0EEB808BD00BF5B
:103880007840002000540040A086010030B5044676
:1038900089B01422002103A800F092FB2268154B86
:1038A0009A4224D1144C154800250195236B43F00E
:1038B00002032363236B03F002030193019B4FF484
:1038C0004073039312230493012305930323069368
:1038D00003A904230793FDF7E1F90295236C43F450
:1038E00000132364236C03F400130293029B09B0BA
:1038F00030BD00BF005400400038024000040240C8
:103900008028104B03D11A684AB901221A601B683B
:1039100083B120280FD004D8102808D07047002287
:10392000F4E7402809D0B0F5005F08D070470122C5
:10393000054B1A6070470222FAE70322F8E70522D6
:10394000F6E700BF1C4000201840002030B595B0BD
:103950003022002108A800F033FB0021142203A824
:1039600000F02EFB00241D4B01941A6C42F0805293
:103970001A641B6C03F080530193019B184B029453
:103980001A6842F440421A601B6803F440430293F1
:10399000029B012308934FF4A02309934FF4800363
:1039A0000F9304231093A8230225119308A807233B
:1039B00013930E951295FDF721FF0F2303934FF4F8
:1039C000A053069305214FF4805303A80495059452
:1039D0000793FEF7C3F815B030BD00BF00380240B2
:1039E0000070004008B5FCF793FDFFF7AFFFFFF74D
:1039F0006BFEFFF73FFC00F0E3F900F035FAFFF74C
:103A0000D5FBFFF715FFFFF737FEFEF777FDFEE763
:103A100010B500234FF06044934201DB104610BD07
:103A2000D4F8800EC00703D5D4F8000EC00702D426
:103A30000133F1E700BF20680028FBD0C85C20708C
:103A4000F6E700000268034B9A4201D1FCF77ABD09
:103A5000704700BF000401407047FEF775BFFFF7D5
:103A600001B8000007B50F4B00220092596C41F4D9
:103A700080415964596C01F4804100910099019290
:103A8000196C41F0805119641B6C03F08053019351
:103A90000F216FF00100019BFCF7D4FE03B05DF82D
:103AA00004FB00BF0038024030B5014689B0002257
:103AB0002C20FCF7C7FE2C20FCF7F8FE0025154B48
:103AC00002955A6C144C42F002025A645B6C03F08B
:103AD0000203029301A903A8029BFEF7FFF8FEF779
:103AE000EDF80E4B236040F2E733E36040000C4BEF
:103AF000B0FBF3F00138606020462561A560FEF759
:103B000029FA20B92046FEF708F909B030BD012096
:103B1000FBE700BF00380240CC4000200004014019
:103B200040420F007047FEE7FEE7FEE7FEE7704702
:103B30001020FDF7A5B908B52020FDF7A1F9402018
:103B4000FDF79EF98020BDE80840FDF799B94FF4D4
:103B50000050FDF795B900000148FEF7F2B800BF2C
:103B6000CC4000200F49D1F8883043F47003C1F8ED
:103B700088300D4B1A68002042F001021A609860EC
:103B80001A6822F0847222F480321A60074A5A605E
:103B90001A6822F480221A60D8604FF000638B60AC
:103BA000704700BF00ED00E00038024010300024F4
:103BB00070B50123B1FBF3F4944201D213B970BD87
:103BC0005343F7E70568B1FBF3F4092C03FB141129
:103BD00005F10106CCBF37343034066093FBF2F3B5
:103BE0002C70EBE72DE9F34102AD0C4645F8040DCE
:103BF000134606462D27227832B9019B1A70019888
:103C0000801B02B0BDE8F081252A46D16278642A83
:103C100021D00AD8582A13D0632A15D0252A09D1D1
:103C20000199481C01900A7004E0732A23D003D83C
:103C3000692A10D00234DEE7752A29D0782AF9D112
:103C400003F10408102226E0019A511C0191196821
:103C500011700433EEE71968002903F1040804DA4F
:103C6000019B5A1C019249421F700A222846FFF705
:103C70009FFF4346DEE7191D1B681A780AB90B46F9
:103C8000D8E7019A501C019013F8010B1070F4E76B
:103C900003F104080A221968E8E70199481C019019
:103CA00001340A70A7E730B502460020137803B943
:103CB00030BD252B28D15378692B02F1010413D094
:103CC00008D8632B0ED0642B0ED0582B08D100F1EE
:103CD00008030BE0752B07D0782BF8D0732B07D097
:103CE000431C0EE00431FBE700F10B03043108E054
:103CF0000A680D1D801A131812F8011B0029FAD149
:103D00002946621C1846D1E7431C1446F9E70FB454
:103D10002DE9F04182B000AF07F1200555F8046BA2
:103D20007D6029463046FFF7BEFF3128044619DC86
:103D3000073424F00704E846ADEB040D2A4631466B
:103D400068467D60FFF74EFF694602460120FFF797
:103D50005FFE0446C54620460837BD46BDE8F04133
:103D600004B07047FFF779FE80460028F3D02A465A
:103D700031467D60FFF736FF414602460120FFF7DE
:103D800047FE04464046FFF76AFEE4E738B50546BD
:103D9000FCF72EFA2946024604460120FFF738FEBA
:103DA0000122054605491046FFF732FE013428443A
:103DB000001B18BF4FF0FF3038BD00BF8C4000081B
:103DC00008B50B480B4B4FF4E13E80E808400C224D
:103DD00000238360C360036142618361C361FEF7B6
:103DE000EFF918B1BDE80840FFF736BE08BD00BFC7
:103DF0000C4100200048004010B5044688B0142251
:103E0000002103A800F0DCF82268154B9A4225D166
:103E100003F5F833002101911A6C124842F4802214
:103E20001A641A6C02F480220192019A02911A6BB0
:103E300042F008021A631B6B03F008030293029B13
:103E40004FF4407303930223049301230593032348
:103E5000069303A907230793FCF720FF08B010BDC2
:103E600000480040000C02400C4808B54FF0A0424A
:103E7000042380E80C0002220023C2608261012238
:103E80000361C26103624362C2620363FDF72EFCF9
:103E900018B1BDE80840FFF7DFBD08BD4C41002068
:103EA00030B5044689B01422002103A800F088F838
:103EB0002368B3F1A04F2FD1184C19480025019564
:103EC000236B43F001032363236B03F0010301938E
:103ED000019B4FF4E85303930223049303230693B7
:103EE00003A90A230793FCF7D9FE4FF4007303A933
:103EF0000B48039304950595FCF7D0FE636B43F0E4
:103F0000800363630295636C43F480436364636C72
:103F100003F480430293029B09B030BD0038024095
:103F200000000240DFF834D0002103E00C4B5B5866
:103F3000435004310B480C4B42189A42F6D30B4ABB
:103F400002E0002342F8043B094B9A42F9D3FFF701
:103F500009FE00F011F8FFF745FD7047000003204F
:103F6000CC400008000000201000002010000020BD
:103F700054450020FEE7000070B50D4E0D4CA41B0B
:103F8000A4100025A54209D10B4E0C4C00F020F8DE
:103F9000A41BA4100025A54205D170BD56F82530FC
:103FA00098470135EEE756F8253098470135F2E796
:103FB000C4400008C4400008C4400008C8400008CD
:103FC00002440346934200D1704703F8011BF9E70E
:103FD000F8B500BFF8BC08BC9E467047F8B500BFF6
:083FE000F8BC08BC9E467047C6
:103FE80097400008E53300080000000000000000CA
:103FF8008000000000000000000000008E40000863
:10400800B934000800000000000000008000000033
:10401800000000000000000049444C45006D6F643A
:1040280065207265676C616765006368616E6765C6
:104038006D656E742073656E73006368616D7020C2
:1040480073756976616E74006368616E67656D6526
:104058006E747320656E72656769737472C3A97331
:104068000076616C657572202B2B006D6F6465207E
:104078006E6F726D616C002564482C2025644D2C90
:10408800202564530A006D795461736B30320064E3
:10409800656661756C745461736B00000000000004
:1040A80000000001020304060708090000000001DF
:0440B80002030400FB
:0840BC0074C1FF7F0100000048
:0440C400D50100081A
:0440C800B10100083A
:1040CC0001000000AAAAAAAAD00000000024F40053
:0400000508003F258B
:00000001FF
